{
  "_format": "hh-sol-artifact-1",
  "contractName": "FloridaJSPresentation",
  "sourceName": "contracts/MoneyWow.sol",
  "abi": [
    {
      "inputs": [],
      "stateMutability": "nonpayable",
      "type": "constructor"
    },
    {
      "anonymous": false,
      "inputs": [
        {
          "indexed": true,
          "internalType": "address",
          "name": "owner",
          "type": "address"
        },
        {
          "indexed": true,
          "internalType": "address",
          "name": "approved",
          "type": "address"
        },
        {
          "indexed": true,
          "internalType": "uint256",
          "name": "tokenId",
          "type": "uint256"
        }
      ],
      "name": "Approval",
      "type": "event"
    },
    {
      "anonymous": false,
      "inputs": [
        {
          "indexed": true,
          "internalType": "address",
          "name": "owner",
          "type": "address"
        },
        {
          "indexed": true,
          "internalType": "address",
          "name": "operator",
          "type": "address"
        },
        {
          "indexed": false,
          "internalType": "bool",
          "name": "approved",
          "type": "bool"
        }
      ],
      "name": "ApprovalForAll",
      "type": "event"
    },
    {
      "anonymous": false,
      "inputs": [
        {
          "indexed": true,
          "internalType": "address",
          "name": "previousOwner",
          "type": "address"
        },
        {
          "indexed": true,
          "internalType": "address",
          "name": "newOwner",
          "type": "address"
        }
      ],
      "name": "OwnershipTransferred",
      "type": "event"
    },
    {
      "anonymous": false,
      "inputs": [
        {
          "indexed": true,
          "internalType": "address",
          "name": "from",
          "type": "address"
        },
        {
          "indexed": true,
          "internalType": "address",
          "name": "to",
          "type": "address"
        },
        {
          "indexed": true,
          "internalType": "uint256",
          "name": "tokenId",
          "type": "uint256"
        }
      ],
      "name": "Transfer",
      "type": "event"
    },
    {
      "inputs": [
        {
          "internalType": "address",
          "name": "to",
          "type": "address"
        },
        {
          "internalType": "uint256",
          "name": "tokenId",
          "type": "uint256"
        }
      ],
      "name": "approve",
      "outputs": [],
      "stateMutability": "nonpayable",
      "type": "function"
    },
    {
      "inputs": [
        {
          "internalType": "address",
          "name": "owner",
          "type": "address"
        }
      ],
      "name": "balanceOf",
      "outputs": [
        {
          "internalType": "uint256",
          "name": "",
          "type": "uint256"
        }
      ],
      "stateMutability": "view",
      "type": "function"
    },
    {
      "inputs": [],
      "name": "count",
      "outputs": [
        {
          "internalType": "uint256",
          "name": "",
          "type": "uint256"
        }
      ],
      "stateMutability": "view",
      "type": "function"
    },
    {
      "inputs": [
        {
          "internalType": "uint256",
          "name": "tokenId",
          "type": "uint256"
        }
      ],
      "name": "getApproved",
      "outputs": [
        {
          "internalType": "address",
          "name": "",
          "type": "address"
        }
      ],
      "stateMutability": "view",
      "type": "function"
    },
    {
      "inputs": [
        {
          "internalType": "address",
          "name": "owner",
          "type": "address"
        },
        {
          "internalType": "address",
          "name": "operator",
          "type": "address"
        }
      ],
      "name": "isApprovedForAll",
      "outputs": [
        {
          "internalType": "bool",
          "name": "",
          "type": "bool"
        }
      ],
      "stateMutability": "view",
      "type": "function"
    },
    {
      "inputs": [],
      "name": "name",
      "outputs": [
        {
          "internalType": "string",
          "name": "",
          "type": "string"
        }
      ],
      "stateMutability": "view",
      "type": "function"
    },
    {
      "inputs": [],
      "name": "owner",
      "outputs": [
        {
          "internalType": "address",
          "name": "",
          "type": "address"
        }
      ],
      "stateMutability": "view",
      "type": "function"
    },
    {
      "inputs": [
        {
          "internalType": "uint256",
          "name": "tokenId",
          "type": "uint256"
        }
      ],
      "name": "ownerOf",
      "outputs": [
        {
          "internalType": "address",
          "name": "",
          "type": "address"
        }
      ],
      "stateMutability": "view",
      "type": "function"
    },
    {
      "inputs": [],
      "name": "renounceOwnership",
      "outputs": [],
      "stateMutability": "nonpayable",
      "type": "function"
    },
    {
      "inputs": [
        {
          "internalType": "address",
          "name": "to",
          "type": "address"
        },
        {
          "internalType": "string",
          "name": "uri",
          "type": "string"
        }
      ],
      "name": "safeMint",
      "outputs": [],
      "stateMutability": "nonpayable",
      "type": "function"
    },
    {
      "inputs": [
        {
          "internalType": "address",
          "name": "from",
          "type": "address"
        },
        {
          "internalType": "address",
          "name": "to",
          "type": "address"
        },
        {
          "internalType": "uint256",
          "name": "tokenId",
          "type": "uint256"
        }
      ],
      "name": "safeTransferFrom",
      "outputs": [],
      "stateMutability": "nonpayable",
      "type": "function"
    },
    {
      "inputs": [
        {
          "internalType": "address",
          "name": "from",
          "type": "address"
        },
        {
          "internalType": "address",
          "name": "to",
          "type": "address"
        },
        {
          "internalType": "uint256",
          "name": "tokenId",
          "type": "uint256"
        },
        {
          "internalType": "bytes",
          "name": "_data",
          "type": "bytes"
        }
      ],
      "name": "safeTransferFrom",
      "outputs": [],
      "stateMutability": "nonpayable",
      "type": "function"
    },
    {
      "inputs": [
        {
          "internalType": "address",
          "name": "operator",
          "type": "address"
        },
        {
          "internalType": "bool",
          "name": "approved",
          "type": "bool"
        }
      ],
      "name": "setApprovalForAll",
      "outputs": [],
      "stateMutability": "nonpayable",
      "type": "function"
    },
    {
      "inputs": [
        {
          "internalType": "bytes4",
          "name": "interfaceId",
          "type": "bytes4"
        }
      ],
      "name": "supportsInterface",
      "outputs": [
        {
          "internalType": "bool",
          "name": "",
          "type": "bool"
        }
      ],
      "stateMutability": "view",
      "type": "function"
    },
    {
      "inputs": [],
      "name": "symbol",
      "outputs": [
        {
          "internalType": "string",
          "name": "",
          "type": "string"
        }
      ],
      "stateMutability": "view",
      "type": "function"
    },
    {
      "inputs": [
        {
          "internalType": "uint256",
          "name": "tokenId",
          "type": "uint256"
        }
      ],
      "name": "tokenURI",
      "outputs": [
        {
          "internalType": "string",
          "name": "",
          "type": "string"
        }
      ],
      "stateMutability": "view",
      "type": "function"
    },
    {
      "inputs": [
        {
          "internalType": "address",
          "name": "from",
          "type": "address"
        },
        {
          "internalType": "address",
          "name": "to",
          "type": "address"
        },
        {
          "internalType": "uint256",
          "name": "tokenId",
          "type": "uint256"
        }
      ],
      "name": "transferFrom",
      "outputs": [],
      "stateMutability": "nonpayable",
      "type": "function"
    },
    {
      "inputs": [
        {
          "internalType": "address",
          "name": "newOwner",
          "type": "address"
        }
      ],
      "name": "transferOwnership",
      "outputs": [],
      "stateMutability": "nonpayable",
      "type": "function"
    }
  ],
  "bytecode": "0x60806040523480156200001157600080fd5b50604080518082018252601581527f466c6f726964614a5350726573656e746174696f6e000000000000000000000060208083019182528351808501909452600884526723262529a83932bd60c11b908401528151919291620000779160009162000106565b5080516200008d90600190602084019062000106565b505050620000aa620000a4620000b060201b60201c565b620000b4565b620001e9565b3390565b600780546001600160a01b038381166001600160a01b0319831681179093556040519116919082907f8be0079c531659141344cd1fd0a4f28419497f9722a3daafe3b4186f6b6457e090600090a35050565b8280546200011490620001ac565b90600052602060002090601f01602090048101928262000138576000855562000183565b82601f106200015357805160ff191683800117855562000183565b8280016001018555821562000183579182015b828111156200018357825182559160200191906001019062000166565b506200019192915062000195565b5090565b5b8082111562000191576000815560010162000196565b600181811c90821680620001c157607f821691505b60208210811415620001e357634e487b7160e01b600052602260045260246000fd5b50919050565b61199a80620001f96000396000f3fe608060405234801561001057600080fd5b50600436106101165760003560e01c8063715018a6116100a2578063b88d4fde11610071578063b88d4fde1461022e578063c87b56dd14610241578063d204c45e14610254578063e985e9c514610267578063f2fde38b146102a357600080fd5b8063715018a6146101fa5780638da5cb5b1461020257806395d89b4114610213578063a22cb4651461021b57600080fd5b8063095ea7b3116100e9578063095ea7b31461019957806323b872dd146101ae57806342842e0e146101c15780636352211e146101d457806370a08231146101e757600080fd5b806301ffc9a71461011b57806306661abd1461014357806306fdde0314610159578063081812fc1461016e575b600080fd5b61012e610129366004611644565b6102b6565b60405190151581526020015b60405180910390f35b61014b610308565b60405190815260200161013a565b610161610318565b60405161013a9190611748565b61018161017c36600461167c565b6103aa565b6040516001600160a01b03909116815260200161013a565b6101ac6101a736600461161b565b610437565b005b6101ac6101bc3660046114ce565b61054d565b6101ac6101cf3660046114ce565b61057e565b6101816101e236600461167c565b610599565b61014b6101f5366004611482565b610610565b6101ac610696565b6007546001600160a01b0316610181565b6101616106cc565b6101ac610229366004611582565b6106db565b6101ac61023c366004611509565b6106ea565b61016161024f36600461167c565b610722565b6101ac6102623660046115bc565b61072d565b61012e61027536600461149c565b6001600160a01b03918216600090815260056020908152604080832093909416825291909152205460ff1690565b6101ac6102b1366004611482565b6107c0565b60006001600160e01b031982166380ac58cd60e01b14806102e757506001600160e01b03198216635b5e139f60e01b145b8061030257506301ffc9a760e01b6001600160e01b03198316145b92915050565b600061031360085490565b905090565b606060008054610327906118a2565b80601f0160208091040260200160405190810160405280929190818152602001828054610353906118a2565b80156103a05780601f10610375576101008083540402835291602001916103a0565b820191906000526020600020905b81548152906001019060200180831161038357829003601f168201915b5050505050905090565b60006103b58261085b565b61041b5760405162461bcd60e51b815260206004820152602c60248201527f4552433732313a20617070726f76656420717565727920666f72206e6f6e657860448201526b34b9ba32b73a103a37b5b2b760a11b60648201526084015b60405180910390fd5b506000908152600460205260409020546001600160a01b031690565b600061044282610599565b9050806001600160a01b0316836001600160a01b031614156104b05760405162461bcd60e51b815260206004820152602160248201527f4552433732313a20617070726f76616c20746f2063757272656e74206f776e656044820152603960f91b6064820152608401610412565b336001600160a01b03821614806104cc57506104cc8133610275565b61053e5760405162461bcd60e51b815260206004820152603860248201527f4552433732313a20617070726f76652063616c6c6572206973206e6f74206f7760448201527f6e6572206e6f7220617070726f76656420666f7220616c6c00000000000000006064820152608401610412565b6105488383610878565b505050565b61055733826108e6565b6105735760405162461bcd60e51b8152600401610412906117e2565b6105488383836109d0565b610548838383604051806020016040528060008152506106ea565b6000818152600260205260408120546001600160a01b0316806103025760405162461bcd60e51b815260206004820152602960248201527f4552433732313a206f776e657220717565727920666f72206e6f6e657869737460448201526832b73a103a37b5b2b760b91b6064820152608401610412565b60006001600160a01b03821661067a5760405162461bcd60e51b815260206004820152602960248201527f4552433732313a2061646472657373207a65726f206973206e6f7420612076616044820152683634b21037bbb732b960b91b6064820152608401610412565b506001600160a01b031660009081526003602052604090205490565b6007546001600160a01b031633146106c05760405162461bcd60e51b8152600401610412906117ad565b6106ca6000610b6c565b565b606060018054610327906118a2565b6106e6338383610bbe565b5050565b6106f433836108e6565b6107105760405162461bcd60e51b8152600401610412906117e2565b61071c84848484610c8d565b50505050565b606061030282610cc0565b6007546001600160a01b031633146107575760405162461bcd60e51b8152600401610412906117ad565b600061076260085490565b9050610772600880546001019055565b61077c8382610e3e565b6107868183610e58565b600160098360405161079891906116c0565b908152604051908190036020019020805460ff9290921660ff19909216919091179055505050565b6007546001600160a01b031633146107ea5760405162461bcd60e51b8152600401610412906117ad565b6001600160a01b03811661084f5760405162461bcd60e51b815260206004820152602660248201527f4f776e61626c653a206e6577206f776e657220697320746865207a65726f206160448201526564647265737360d01b6064820152608401610412565b61085881610b6c565b50565b6000908152600260205260409020546001600160a01b0316151590565b600081815260046020526040902080546001600160a01b0319166001600160a01b03841690811790915581906108ad82610599565b6001600160a01b03167f8c5be1e5ebec7d5bd14f71427d1e84f3dd0314c0f7b2291e5b200ac8c7c3b92560405160405180910390a45050565b60006108f18261085b565b6109525760405162461bcd60e51b815260206004820152602c60248201527f4552433732313a206f70657261746f7220717565727920666f72206e6f6e657860448201526b34b9ba32b73a103a37b5b2b760a11b6064820152608401610412565b600061095d83610599565b9050806001600160a01b0316846001600160a01b031614806109a457506001600160a01b0380821660009081526005602090815260408083209388168352929052205460ff165b806109c85750836001600160a01b03166109bd846103aa565b6001600160a01b0316145b949350505050565b826001600160a01b03166109e382610599565b6001600160a01b031614610a475760405162461bcd60e51b815260206004820152602560248201527f4552433732313a207472616e736665722066726f6d20696e636f72726563742060448201526437bbb732b960d91b6064820152608401610412565b6001600160a01b038216610aa95760405162461bcd60e51b8152602060048201526024808201527f4552433732313a207472616e7366657220746f20746865207a65726f206164646044820152637265737360e01b6064820152608401610412565b610ab4600082610878565b6001600160a01b0383166000908152600360205260408120805460019290610add90849061185f565b90915550506001600160a01b0382166000908152600360205260408120805460019290610b0b908490611833565b909155505060008181526002602052604080822080546001600160a01b0319166001600160a01b0386811691821790925591518493918716917fddf252ad1be2c89b69c2b068fc378daa952ba7f163c4a11628f55a4df523b3ef91a4505050565b600780546001600160a01b038381166001600160a01b0319831681179093556040519116919082907f8be0079c531659141344cd1fd0a4f28419497f9722a3daafe3b4186f6b6457e090600090a35050565b816001600160a01b0316836001600160a01b03161415610c205760405162461bcd60e51b815260206004820152601960248201527f4552433732313a20617070726f766520746f2063616c6c6572000000000000006044820152606401610412565b6001600160a01b03838116600081815260056020908152604080832094871680845294825291829020805460ff191686151590811790915591519182527f17307eab39ab6107e8899845ad3d59bd9653f200f220920489ca2b5937696c31910160405180910390a3505050565b610c988484846109d0565b610ca484848484610ee3565b61071c5760405162461bcd60e51b81526004016104129061175b565b6060610ccb8261085b565b610d315760405162461bcd60e51b815260206004820152603160248201527f45524337323155524953746f726167653a2055524920717565727920666f72206044820152703737b732bc34b9ba32b73a103a37b5b2b760791b6064820152608401610412565b60008281526006602052604081208054610d4a906118a2565b80601f0160208091040260200160405190810160405280929190818152602001828054610d76906118a2565b8015610dc35780601f10610d9857610100808354040283529160200191610dc3565b820191906000526020600020905b815481529060010190602001808311610da657829003601f168201915b505050505090506000610df0604080518082019091526007815266697066733a2f2f60c81b602082015290565b9050805160001415610e03575092915050565b815115610e35578082604051602001610e1d9291906116dc565b60405160208183030381529060405292505050919050565b6109c884610ff0565b6106e68282604051806020016040528060008152506110d7565b610e618261085b565b610ec45760405162461bcd60e51b815260206004820152602e60248201527f45524337323155524953746f726167653a2055524920736574206f66206e6f6e60448201526d32bc34b9ba32b73a103a37b5b2b760911b6064820152608401610412565b6000828152600660209081526040909120825161054892840190611357565b60006001600160a01b0384163b15610fe557604051630a85bd0160e11b81526001600160a01b0385169063150b7a0290610f2790339089908890889060040161170b565b602060405180830381600087803b158015610f4157600080fd5b505af1925050508015610f71575060408051601f3d908101601f19168201909252610f6e91810190611660565b60015b610fcb573d808015610f9f576040519150601f19603f3d011682016040523d82523d6000602084013e610fa4565b606091505b508051610fc35760405162461bcd60e51b81526004016104129061175b565b805181602001fd5b6001600160e01b031916630a85bd0160e11b1490506109c8565b506001949350505050565b6060610ffb8261085b565b61105f5760405162461bcd60e51b815260206004820152602f60248201527f4552433732314d657461646174613a2055524920717565727920666f72206e6f60448201526e3732bc34b9ba32b73a103a37b5b2b760891b6064820152608401610412565b6000611085604080518082019091526007815266697066733a2f2f60c81b602082015290565b905060008151116110a557604051806020016040528060008152506110d0565b806110af8461110a565b6040516020016110c09291906116dc565b6040516020818303038152906040525b9392505050565b6110e18383611224565b6110ee6000848484610ee3565b6105485760405162461bcd60e51b81526004016104129061175b565b60608161112e5750506040805180820190915260018152600360fc1b602082015290565b8160005b81156111585780611142816118dd565b91506111519050600a8361184b565b9150611132565b60008167ffffffffffffffff81111561118157634e487b7160e01b600052604160045260246000fd5b6040519080825280601f01601f1916602001820160405280156111ab576020820181803683370190505b5090505b84156109c8576111c060018361185f565b91506111cd600a866118f8565b6111d8906030611833565b60f81b8183815181106111fb57634e487b7160e01b600052603260045260246000fd5b60200101906001600160f81b031916908160001a90535061121d600a8661184b565b94506111af565b6001600160a01b03821661127a5760405162461bcd60e51b815260206004820181905260248201527f4552433732313a206d696e7420746f20746865207a65726f20616464726573736044820152606401610412565b6112838161085b565b156112d05760405162461bcd60e51b815260206004820152601c60248201527f4552433732313a20746f6b656e20616c7265616479206d696e746564000000006044820152606401610412565b6001600160a01b03821660009081526003602052604081208054600192906112f9908490611833565b909155505060008181526002602052604080822080546001600160a01b0319166001600160a01b03861690811790915590518392907fddf252ad1be2c89b69c2b068fc378daa952ba7f163c4a11628f55a4df523b3ef908290a45050565b828054611363906118a2565b90600052602060002090601f01602090048101928261138557600085556113cb565b82601f1061139e57805160ff19168380011785556113cb565b828001600101855582156113cb579182015b828111156113cb5782518255916020019190600101906113b0565b506113d79291506113db565b5090565b5b808211156113d757600081556001016113dc565b600067ffffffffffffffff8084111561140b5761140b611938565b604051601f8501601f19908116603f0116810190828211818310171561143357611433611938565b8160405280935085815286868601111561144c57600080fd5b858560208301376000602087830101525050509392505050565b80356001600160a01b038116811461147d57600080fd5b919050565b600060208284031215611493578081fd5b6110d082611466565b600080604083850312156114ae578081fd5b6114b783611466565b91506114c560208401611466565b90509250929050565b6000806000606084860312156114e2578081fd5b6114eb84611466565b92506114f960208501611466565b9150604084013590509250925092565b6000806000806080858703121561151e578081fd5b61152785611466565b935061153560208601611466565b925060408501359150606085013567ffffffffffffffff811115611557578182fd5b8501601f81018713611567578182fd5b611576878235602084016113f0565b91505092959194509250565b60008060408385031215611594578182fd5b61159d83611466565b9150602083013580151581146115b1578182fd5b809150509250929050565b600080604083850312156115ce578182fd5b6115d783611466565b9150602083013567ffffffffffffffff8111156115f2578182fd5b8301601f81018513611602578182fd5b611611858235602084016113f0565b9150509250929050565b6000806040838503121561162d578182fd5b61163683611466565b946020939093013593505050565b600060208284031215611655578081fd5b81356110d08161194e565b600060208284031215611671578081fd5b81516110d08161194e565b60006020828403121561168d578081fd5b5035919050565b600081518084526116ac816020860160208601611876565b601f01601f19169290920160200192915050565b600082516116d2818460208701611876565b9190910192915050565b600083516116ee818460208801611876565b835190830190611702818360208801611876565b01949350505050565b6001600160a01b038581168252841660208201526040810183905260806060820181905260009061173e90830184611694565b9695505050505050565b6020815260006110d06020830184611694565b60208082526032908201527f4552433732313a207472616e7366657220746f206e6f6e20455243373231526560408201527131b2b4bb32b91034b6b83632b6b2b73a32b960711b606082015260800190565b6020808252818101527f4f776e61626c653a2063616c6c6572206973206e6f7420746865206f776e6572604082015260600190565b60208082526031908201527f4552433732313a207472616e736665722063616c6c6572206973206e6f74206f6040820152701ddb995c881b9bdc88185c1c1c9bdd9959607a1b606082015260800190565b600082198211156118465761184661190c565b500190565b60008261185a5761185a611922565b500490565b6000828210156118715761187161190c565b500390565b60005b83811015611891578181015183820152602001611879565b8381111561071c5750506000910152565b600181811c908216806118b657607f821691505b602082108114156118d757634e487b7160e01b600052602260045260246000fd5b50919050565b60006000198214156118f1576118f161190c565b5060010190565b60008261190757611907611922565b500690565b634e487b7160e01b600052601160045260246000fd5b634e487b7160e01b600052601260045260246000fd5b634e487b7160e01b600052604160045260246000fd5b6001600160e01b03198116811461085857600080fdfea2646970667358221220cb151429ac9bc4a39e90ddd0d5093ba252481810e8edf03cb8d84c0d8774662c64736f6c63430008040033",
  "linkReferences": {},
  "deployedLinkReferences": {}
}